:020000040800F2
:1000000000100020E50C0008D10C0008D30C0008FB
:1000100000000000000000000000000000000000E0
:10002000000000000000000000000000D50C0008E7
:100030000000000000000000D70C0008D90C0008E8
:10004000350D000800000000350D0008350D0008D2
:10005000350D0008350D0008350D0008350D000878
:1000600000000000350D0008350D0008350D0008B2
:10007000350D0008350D0008350D000800000000A2
:10008000350D00080000000000000000350D0008DC
:1000900000000000350D0008350D0008350D000882
:1000A00000000000350D000800000000350D0008BC
:1000B0000000000000000000000000000000000040
:1000C00010B5064C2378002B07D1054B002B02D02E
:1000D000044800E000BF0123237010BD0C00002085
:1000E00000000000900D0008084B10B5002B03D055
:1000F0000749084800E000BF07480368002B00D10B
:1001000010BD064B002BFBD09847F9E7000000001C
:1001100010000020900D00080C00002000000000DE
:10012000002243088B4274D303098B425FD3030A36
:100130008B4244D3030B8B4228D3030C8B420DD349
:10014000FF22090212BA030C8B4202D312120902D7
:1001500065D0030B8B4219D300E0090AC30B8B4215
:1001600001D3CB03C01A5241830B8B4201D38B03C3
:10017000C01A5241430B8B4201D34B03C01A524168
:10018000030B8B4201D30B03C01A5241C30A8B42AB
:1001900001D3CB02C01A5241830A8B4201D38B0296
:1001A000C01A5241430A8B4201D34B02C01A52413A
:1001B000030A8B4201D30B02C01A5241CDD2C309AC
:1001C0008B4201D3CB01C01A524183098B4201D328
:1001D0008B01C01A524143098B4201D34B01C01A13
:1001E000524103098B4201D30B01C01A5241C3088B
:1001F0008B4201D3CB00C01A524183088B4201D3FA
:100200008B00C01A524143088B4201D34B00C01AE5
:100210005241411A00D20146524110467047FFE751
:1002200001B5002000F006F802BDC0460029F7D055
:1002300076E770477047C04610B504000E4B19783A
:10024000FA208000FFF76CFF01000C4B1868FFF7E5
:1002500067FF00F079F800280CD1032C01D90120A8
:1002600009E000222100013800F03EF8024B5C60FA
:10027000002000E0012010BD000000200800002048
:1002800010B5064A136810210B4313600020FFF7D6
:10029000D3FF00F005FD002010BDC0460020024045
:1002A000034A1168034B1B785B1813607047C04604
:1002B0002800002000000020014B18687047C0464D
:1002C0002800002070B50400FFF7F6FF0500631C4E
:1002D00002D0044B1B78E418FFF7EEFF401B84426A
:1002E000FAD870BD0000002070B5002811DB82082C
:1002F000134DC0329200545903231840C000FC3300
:100300001E008640B44389010B4083402343535170
:1003100070BDC0B20F220240083A92080632920025
:10032000084BD3185D6803242040C000FF2214004E
:100330008440A54389011140814029435960E7E782
:1003400000E100E000ED00E001380A4B98420FD8D0
:10035000094A50600948036A1B021B0AC0210906AA
:100360000B43036200239360073313600020704740
:100370000120FCE7FFFFFF0010E000E000ED00E0DF
:10038000F0B5C64600B582B000237EE0DF0808372E
:10039000BF003E5807251D40AD000F24AC40A643CA
:1003A0000C69AC40250035433D507EE085686446CD
:1003B0002540CE68BE403543856045682C004546E3
:1003C000AC434D682E09012535409D402C434460C7
:1003D000C46865462C408D68BD402C43C4604C68A1
:1003E000E40051D5434DAE6901242643AE61AD69A9
:1003F0002C400194019C9C08A51CAD003E4EAE59BA
:1004000003251D40AD000F27AF40BE439027FF05D9
:10041000B84265D0394FB84264D0394FB84263D042
:10042000384FB8425AD00527AF403D00354302341B
:10043000A400314EA551344C2568D44326002E40EB
:100440004F68FF0301D515432E002F4D2E606D68B8
:100450002E0026404F68BF0301D515432E002A4DBC
:100460006E60AD682E0026404F68FF0201D515432F
:100470002E00254DAE60ED682C404E68B60201D5C9
:100480002A431400204AD46001330A681400DC4077
:100490002CD001249C40A0462240F5D04D68022D6E
:1004A00000D173E7122D00D170E706685F000325C5
:1004B0002C00BC40E443A44626404C682540BD4087
:1004C000354305604D686E1E012E00D86EE7112D74
:1004D00000D16BE7122D00D07AE767E70327A3E787
:1004E0000027A1E701279FE702279DE702B004BC90
:1004F0009046F0BD0010024000000140000400489A
:1005000000080048000C00480004014003690B4249
:1005100001D1002070470120FCE7002A01D181624F
:1005200070478161FCE7000070B582B0041E00D105
:1005300031E20368DB0736D5C14B5A680C23134000
:10054000042B28D0BE4B5A680C231340082B1ED016
:100550006368012B4BD0002B50D1B94B1A68B949B5
:100560000A401A601A68B8490A401A606368002B8A
:100570005CD0FFF7A1FE0500B14B1B689B0312D4B2
:10058000FFF79AFE401B6428F6D9032008E2AC4B23
:100590005B68DB03DCD5AA4B1B689B0303D5636850
:1005A000002B00D1F9E123689B0762D5A44B5B685F
:1005B0000C221A424CD0A24B5A680C231340082B31
:1005C00042D0E368002B76D09D4A136801210B438B
:1005D0001360FFF771FE0500994B1B689B0761D400
:1005E000FFF76AFE401B0228F6D90320D8E1944A9F
:1005F000116880235B020B431360B7E7052B09D01A
:100600008F4B1A688F490A401A601A688E490A404F
:100610001A60ABE78A4B19688022D2020A431A603B
:100620001968802252020A431A609FE7FFF744FECE
:100630000500834B1B689B03B5D5FFF73DFE401BB0
:100640006428F6D90320ABE17D4B5B68DB03B8D4AB
:100650007B4B1B689B0704D5E368012B01D001206D
:100660009EE177490B68F82293432269D200134335
:100670000B6023681B0744D5E369002B2ED0704A1A
:10068000536A01210B435362FFF716FE05006C4BC2
:100690005B6A9B0735D4FFF70FFE401B0228F6D993
:1006A00003207DE166490B68F82293432269D2005A
:1006B00013430B60DDE7624A136801218B4313602B
:1006C000FFF7FAFD05005E4B1B689B07D1D5FFF7CE
:1006D000F3FD401B0228F6D9032061E1584A536A12
:1006E00001218B435362FFF7E7FD0500544B5B6A22
:1006F0009B0706D5FFF7E0FD401B0228F6D9032033
:100700004EE123685B0775D54D4BDB69DB002ED4CA
:100710004B4AD169802040050143D161D369034030
:100720000193019B0125494B1B68DB0521D5A3687B
:10073000012B32D0002B36D1414B1A6A01218A435A
:100740001A621A6A03318A431A62A368002B40D0E6
:10075000FFF7B2FD06003A4B1B6A9B0748D4FFF730
:10076000ABFD801B3A4B9842F5D9032018E10025D8
:10077000D9E7364A116880235B000B431360FFF70B
:100780009BFD0600314B1B68DB05D0D4FFF794FDC1
:10079000801B6428F6D9032002E1294A136A01214B
:1007A0000B431362D1E7052B09D0254B1A6A0121AF
:1007B0008A431A621A6A03318A431A62C5E7204BD8
:1007C0001A6A04210A431A621A6A03390A431A622E
:1007D000BBE7FFF771FD0600194B1B6A9B0707D5A6
:1007E000FFF76AFD801B1A4B9842F5D90320D7E02A
:1007F000012D1ED02368DB065AD56369012B2BD04F
:10080000053349D00E4B5A6B04210A435A635A6B85
:1008100003398A435A63FFF74FFD0500084B5B6BB2
:100820009B0745D5FFF748FD401B0228F6D903205A
:10083000B6E0034AD36907490B40D361DAE7C04603
:1008400000100240FFFFFEFFFFFFFBFF00700040B3
:1008500088130000FFFFFFEF544B5A6B04210A433B
:100860005A635A6B03390A435A63FFF725FD0500A3
:100870004E4B5B6B9B0706D4FFF71EFD401B022807
:10088000F6D903208CE049494B6BF8229343A269C7
:10089000D20013434B630BE0444A536B04218B4358
:1008A0005363536BF4318B43A169C9000B4353630A
:1008B000236A002B73D03D4A51680C220A40082A53
:1008C0004DD0022B12D0394A136839490B401360BE
:1008D000FFF7F2FC0400354B1B689B013DD5FFF789
:1008E000EBFC001B0228F6D9032059E02F4A1368BD
:1008F0002F490B401360FFF7DFFC05002B4B1B68F3
:100900009B0106D5FFF7D8FC401B0228F6D903202F
:1009100046E0264BDA6A0F218A43E16A0A43DA622B
:100920005A6824490A40A16A606A01430A435A602E
:100930001968802252040A431A60FFF7BDFC0400C4
:100940001A4B1B689B0106D4FFF7B6FC001B02285C
:10095000F6D9032024E0002022E0002020E0012B33
:1009600020D0124B5A68D96A80235B021340606A18
:10097000834201D0012013E00F230B40E16A8B4238
:1009800001D001200CE0F0239B031A40A36A9A4295
:100990000AD0012004E0012002E0012000E0002054
:1009A00002B070BD0120FBE70020F9E70010024013
:1009B000FFFFFFFEFFFFC2FF30B589B004AA154B51
:1009C000180032C832C2110002680A606A46103349
:1009D00013CB13C21B6813600F4B5A680C231340D0
:1009E000082B13D1910C0733194004A8445C0A4921
:1009F000C96A0B406946C95CD30302D40748604307
:100A000005E00748FFF78CFB604300E0044809B0AD
:100A100030BDC046A80D00080010024000093D008E
:100A200000127A0070B504000D00002800D181E0AA
:100A3000424B1A68012313408B420BD23F490B688B
:100A4000012293432B430B600B681A40954201D05F
:100A500001206EE023689A070ED55B0705D5384A5A
:100A60005168E023DB000B435360354A5368F021A3
:100A70008B43A1680B4353602368DB072DD5636864
:100A8000012B1ED0022B22D02D4A1268920753D57B
:100A90002B494A680320824313434B60FFF70CFC49
:100AA0000600274B5B680C221A4063689B009A4241
:100AB00013D0FFF701FC801B224B9842F1D9032091
:100AC00037E01F4A12689203E2D4012031E01C4A49
:100AD00012689201DCD401202BE0184B1A68012324
:100AE00013409D420BD215490B68012293432B43BF
:100AF0000B600B681A40954201D0012019E0236871
:100B00005B0706D50E4A53680F490B40E1680B435B
:100B10005360FFF751FF0A4B5A6812090F23134025
:100B20000A4AD35CD8400A4B18600020FFF784FBC8
:100B3000002070BD0120FCE70120FAE70020024000
:100B40000010024088130000FFF8FFFFC80D0008E6
:100B50000800002030B587B01422002101A800F061
:100B60000FF9134A51698020800201435161536992
:100B700003400093009B9025ED0500226C21280086
:100B8000FFF7CBFC6C2301936B3B0293002403948F
:100B9000049401A92800FFF7F3FB9023019302942A
:100BA000039401A92800FFF7EBFB07B030BDC04656
:100BB0000010024000B591B03022002104A800F0DE
:100BC000DFF810220021684600F0DAF802230493CF
:100BD000013B07930F33089304A8FFF7A5FC0723F5
:100BE0000093002301930293039300216846FFF7CB
:100BF00019FF11B000BD70B5FFF742FBFFF7DAFF38
:100C0000FFF7A8FF06E010219020C005FFF77EFC4B
:100C1000012825D080219020C005FFF777FC01280E
:100C2000F1D19024E405012204212000FFF775FC96
:100C3000012208212000FFF770FCFA256D00280032
:100C4000FFF740FB002204212000FFF766FC002292
:100C500008212000FFF761FC2800FFF733FBD2E7F3
:100C60009024E405012204212000FFF756FC012214
:100C700008212000FFF751FCFA256D002800FFF73E
:100C800021FB002204212000FFF747FC002208215D
:100C90002000FFF742FC2800FFF714FBBAE7000032
:100CA00082B00A4B996901221143996199690A40FE
:100CB0000092009ADA69802149050A43DA61DB690A
:100CC0000B400193019B02B07047C04600100240E8
:100CD0007047FEE77047704710B5FFF7E1FA10BDA7
:100CE000704700000D4885460D480E490E4A002306
:100CF00002E0D458C4500433C4188C42F9D30B4AD0
:100D00000B4C002301E013600432A242FBD3FFF737
:100D1000E7FF00F011F8FFF76EFFFEE7001000207C
:100D2000000000200C000020E80D00080C0000204E
:100D30002C000020FEE7000070B500260C4D0D4C85
:100D4000641BA410A64209D1002600F021F80A4D28
:100D50000A4C641BA410A64205D170BDB300EB5829
:100D600098470136EEE7B300EB5898470136F2E7B3
:100D7000E00D0008E00D0008E00D0008E40D00089B
:100D800003008218934200D1704719700133F9E7CC
:100D9000F8B5C046F8BC08BC9E467047F8B5C046DA
:080DA000F8BC08BC9E46704738
:100DA80002030405060708090A0B0C0D0E0F1010A4
:100DB8000102030405060708090A0B0C0D0E0F10A3
:100DC80000000000000000000102030406070809F3
:080DD800000000000102030409
:040DE000E90000081E
:040DE400C100000842
:0C0DE800010000000400000000127A006E
:0400000508000CE5FE
:00000001FF
